{
    "_format": "hh-sol-artifact-1",
    "contractName": "OracleFacingGeoConsumer",
    "sourceName": "contracts/OracleFacingGeoConsumer.sol",
    "abi": [
        {
            "inputs": [
                {
                    "internalType": "uint256",
                    "name": "_operatorNumber",
                    "type": "uint256"
                }
            ],
            "stateMutability": "nonpayable",
            "type": "constructor"
        },
        {
            "anonymous": false,
            "inputs": [
                {
                    "indexed": true,
                    "internalType": "bytes32",
                    "name": "id",
                    "type": "bytes32"
                }
            ],
            "name": "ChainlinkCancelled",
            "type": "event"
        },
        {
            "anonymous": false,
            "inputs": [
                {
                    "indexed": true,
                    "internalType": "bytes32",
                    "name": "id",
                    "type": "bytes32"
                }
            ],
            "name": "ChainlinkFulfilled",
            "type": "event"
        },
        {
            "anonymous": false,
            "inputs": [
                {
                    "indexed": true,
                    "internalType": "bytes32",
                    "name": "id",
                    "type": "bytes32"
                }
            ],
            "name": "ChainlinkRequested",
            "type": "event"
        },
        {
            "inputs": [
                {
                    "internalType": "bytes32",
                    "name": "requestId",
                    "type": "bytes32"
                },
                {
                    "internalType": "int256",
                    "name": "geostatsData",
                    "type": "int256"
                },
                {
                    "internalType": "string",
                    "name": "cidValue",
                    "type": "string"
                }
            ],
            "name": "fulfillGeostatsData",
            "outputs": [],
            "stateMutability": "nonpayable",
            "type": "function"
        },
        {
            "inputs": [
                {
                    "internalType": "uint256",
                    "name": "index",
                    "type": "uint256"
                }
            ],
            "name": "getCid",
            "outputs": [
                {
                    "internalType": "string",
                    "name": "",
                    "type": "string"
                }
            ],
            "stateMutability": "view",
            "type": "function"
        },
        {
            "inputs": [
                {
                    "internalType": "uint256",
                    "name": "property_id",
                    "type": "uint256"
                }
            ],
            "name": "getGeometry",
            "outputs": [
                {
                    "internalType": "string",
                    "name": "",
                    "type": "string"
                }
            ],
            "stateMutability": "view",
            "type": "function"
        },
        {
            "inputs": [],
            "name": "getGeostatsData",
            "outputs": [
                {
                    "internalType": "int256",
                    "name": "",
                    "type": "int256"
                }
            ],
            "stateMutability": "view",
            "type": "function"
        },
        {
            "inputs": [
                {
                    "internalType": "uint256",
                    "name": "operator_number",
                    "type": "uint256"
                },
                {
                    "internalType": "string",
                    "name": "geospatial_category",
                    "type": "string"
                }
            ],
            "name": "jobSpecId",
            "outputs": [
                {
                    "internalType": "bytes32",
                    "name": "",
                    "type": "bytes32"
                }
            ],
            "stateMutability": "pure",
            "type": "function"
        },
        {
            "inputs": [
                {
                    "internalType": "uint256",
                    "name": "operator_number",
                    "type": "uint256"
                }
            ],
            "name": "linkTokenContractAddress",
            "outputs": [
                {
                    "internalType": "address",
                    "name": "",
                    "type": "address"
                }
            ],
            "stateMutability": "pure",
            "type": "function"
        },
        {
            "inputs": [
                {
                    "internalType": "uint256",
                    "name": "operator_number",
                    "type": "uint256"
                }
            ],
            "name": "networkOfOperator",
            "outputs": [
                {
                    "internalType": "string",
                    "name": "",
                    "type": "string"
                }
            ],
            "stateMutability": "pure",
            "type": "function"
        },
        {
            "inputs": [
                {
                    "internalType": "uint256",
                    "name": "operator_number",
                    "type": "uint256"
                }
            ],
            "name": "operatorAddress",
            "outputs": [
                {
                    "internalType": "address",
                    "name": "",
                    "type": "address"
                }
            ],
            "stateMutability": "pure",
            "type": "function"
        },
        {
            "inputs": [
                {
                    "internalType": "string",
                    "name": "agg_x",
                    "type": "string"
                },
                {
                    "internalType": "string",
                    "name": "dataset_code",
                    "type": "string"
                },
                {
                    "internalType": "string",
                    "name": "selected_band",
                    "type": "string"
                },
                {
                    "internalType": "string",
                    "name": "image_scale",
                    "type": "string"
                },
                {
                    "internalType": "string",
                    "name": "start_date",
                    "type": "string"
                },
                {
                    "internalType": "string",
                    "name": "end_date",
                    "type": "string"
                },
                {
                    "components": [
                        {
                            "internalType": "uint256",
                            "name": "property_id",
                            "type": "uint256"
                        },
                        {
                            "internalType": "string",
                            "name": "coordinates",
                            "type": "string"
                        }
                    ],
                    "internalType": "struct ShambaGeoConsumer.Geometry[]",
                    "name": "geometry",
                    "type": "tuple[]"
                }
            ],
            "name": "requestGeostatsData",
            "outputs": [],
            "stateMutability": "nonpayable",
            "type": "function"
        },
        {
            "inputs": [],
            "name": "total_oracle_calls",
            "outputs": [
                {
                    "internalType": "uint256",
                    "name": "",
                    "type": "uint256"
                }
            ],
            "stateMutability": "view",
            "type": "function"
        }
    ],
    "bytecode": "0x608060405260016004556040516200001790620002c7565b604051809103906000f08015801562000034573d6000803e3d6000fd5b50600660006101000a81548173ffffffffffffffffffffffffffffffffffffffff021916908373ffffffffffffffffffffffffffffffffffffffff16021790555060006009553480156200008757600080fd5b5060405162004394380380620043948339818101604052810190620000ad919062000335565b8080600a8190555062000176600660009054906101000a900473ffffffffffffffffffffffffffffffffffffffff1673ffffffffffffffffffffffffffffffffffffffff1663a6a7dcb2836040518263ffffffff1660e01b815260040162000116919062000378565b60206040518083038186803b1580156200012f57600080fd5b505afa15801562000144573d6000803e3d6000fd5b505050506040513d601f19601f820116820180604052508101906200016a919062000303565b6200023f60201b60201c565b62000237600660009054906101000a900473ffffffffffffffffffffffffffffffffffffffff1673ffffffffffffffffffffffffffffffffffffffff1663201f6754836040518263ffffffff1660e01b8152600401620001d7919062000378565b60206040518083038186803b158015620001f057600080fd5b505afa15801562000205573d6000803e3d6000fd5b505050506040513d601f19601f820116820180604052508101906200022b919062000303565b6200028360201b60201c565b50506200040c565b80600260006101000a81548173ffffffffffffffffffffffffffffffffffffffff021916908373ffffffffffffffffffffffffffffffffffffffff16021790555050565b80600360006101000a81548173ffffffffffffffffffffffffffffffffffffffff021916908373ffffffffffffffffffffffffffffffffffffffff16021790555050565b610e81806200351383390190565b600081519050620002e681620003d8565b92915050565b600081519050620002fd81620003f2565b92915050565b6000602082840312156200031c576200031b620003d3565b5b60006200032c84828501620002d5565b91505092915050565b6000602082840312156200034e576200034d620003d3565b5b60006200035e84828501620002ec565b91505092915050565b6200037281620003c9565b82525050565b60006020820190506200038f600083018462000367565b92915050565b6000620003a282620003a9565b9050919050565b600073ffffffffffffffffffffffffffffffffffffffff82169050919050565b6000819050919050565b600080fd5b620003e38162000395565b8114620003ef57600080fd5b50565b620003fd81620003c9565b81146200040957600080fd5b50565b6130f7806200041c6000396000f3fe608060405234801561001057600080fd5b506004361061009e5760003560e01c80638b971b9a116100665780638b971b9a1461016f578063a6a7dcb21461018b578063b3af88ba146101bb578063c063a6e7146101d7578063d459dd96146102075761009e565b8063201f6754146100a35780633beaa6ab146100d357806351c5029a1461010357806374747bff146101215780638894291e1461013f575b600080fd5b6100bd60048036038101906100b8919061242c565b610237565b6040516100ca91906126cf565b60405180910390f35b6100ed60048036038101906100e8919061242c565b610321565b6040516100fa91906127d4565b60405180910390f35b61010b6103c6565b60405161011891906127b9565b60405180910390f35b6101296103d0565b6040516101369190612836565b60405180910390f35b61015960048036038101906101549190612459565b6103d6565b604051610166919061279e565b60405180910390f35b610189600480360381019061018491906122c6565b61095f565b005b6101a560048036038101906101a0919061242c565b610e83565b6040516101b291906126cf565b60405180910390f35b6101d560048036038101906101d09190612252565b610f6d565b005b6101f160048036038101906101ec919061242c565b6110d6565b6040516101fe91906127d4565b60405180910390f35b610221600480360381019061021c919061242c565b611294565b60405161022e91906127d4565b60405180910390f35b6000600182141561025e57733706bdd2d30474a5069e1451ab860a2570b1c249905061031c565b6002821415610283577360661168f1228e62403e804813979588d0c17e3b905061031c565b60038214156102a85773bb370f829bdb6fc44f3d34e2a2107578bb2c3f0b905061031c565b60048214156102cd5773a5045d3fd2b84e527713fcefa2f73def48601288905061031c565b60058214156102f25773105a6bc318dcf3fc73472c8833ccd7c684449b90905061031c565b60068214156103175773f77f8d0691f15c4f4b51cd1fb6b8d9c9fd5143d9905061031c565b600090505b919050565b6060600b6000838152602001908152602001600020805461034190612cca565b80601f016020809104026020016040519081016040528092919081815260200182805461036d90612cca565b80156103ba5780601f1061038f576101008083540402835291602001916103ba565b820191906000526020600020905b81548152906001019060200180831161039d57829003601f168201915b50505050509050919050565b6000600754905090565b60095481565b600060018314156104c257610420826040518060400160405280600e81526020017f67656f2d73746174697374696373000000000000000000000000000000000000815250611339565b1561044d577f32326137333834643465363834376339616434396461663935376166666465629050610959565b61048c826040518060400160405280600d81526020017f666972652d616e616c7973697300000000000000000000000000000000000000815250611339565b156104b9577f64363339663831343763383334333066613031363362313436393335656235659050610959565b60009050610959565b60028314156105ac5761050a826040518060400160405280600e81526020017f67656f2d73746174697374696373000000000000000000000000000000000000815250611339565b15610537577f37326439366135636530356134366233626538616233376436326265616534669050610959565b610576826040518060400160405280600d81526020017f666972652d616e616c7973697300000000000000000000000000000000000000815250611339565b156105a3577f61343430333461623431333734656538383833626364346131393637373934339050610959565b60009050610959565b6003831415610696576105f4826040518060400160405280600e81526020017f67656f2d73746174697374696373000000000000000000000000000000000000815250611339565b15610621577f36353633633133353337326134373038383162376666653262376438306130649050610959565b610660826040518060400160405280600d81526020017f666972652d616e616c7973697300000000000000000000000000000000000000815250611339565b1561068d577f61353437386134376365376334393062383264373066643439306664376639629050610959565b60009050610959565b6004831415610780576106de826040518060400160405280600e81526020017f67656f2d73746174697374696373000000000000000000000000000000000000815250611339565b1561070b577f36626338383463613166386534653733383438393666336364373465363739639050610959565b61074a826040518060400160405280600d81526020017f666972652d616e616c7973697300000000000000000000000000000000000000815250611339565b15610777577f30643030333664656361623734303262393034653033383231316434303939369050610959565b60009050610959565b600583141561086a576107c8826040518060400160405280600e81526020017f67656f2d73746174697374696373000000000000000000000000000000000000815250611339565b156107f5577f66333665316266363463393034626231383634616530363039336136396665369050610959565b610834826040518060400160405280600d81526020017f666972652d616e616c7973697300000000000000000000000000000000000000815250611339565b15610861577f35363333663735353736653934643362626536303466376530613763663364629050610959565b60009050610959565b6006831415610954576108b2826040518060400160405280600e81526020017f67656f2d73746174697374696373000000000000000000000000000000000000815250611339565b156108df577f34653530633439656231306134653065626536386530656663643430353438649050610959565b61091e826040518060400160405280600d81526020017f666972652d616e616c7973697300000000000000000000000000000000000000815250611339565b1561094b577f39363034653162626134613134373664623333656664643365623931353738349050610959565b60009050610959565b600090505b92915050565b6000600660009054906101000a900473ffffffffffffffffffffffffffffffffffffffff1673ffffffffffffffffffffffffffffffffffffffff16638894291e600a546040518263ffffffff1660e01b81526004016109be9190612851565b60206040518083038186803b1580156109d657600080fd5b505afa1580156109ea573d6000803e3d6000fd5b505050506040513d601f19601f82011682018060405250810190610a0e9190612225565b90506000670de0b6b3a764000090506000610a31833063b3af88ba60e01b611392565b90506000610a746040518060400160405280600a81526020017f7b226167675f78223a22000000000000000000000000000000000000000000008152508c6113c3565b9050610ab5816040518060400160405280601381526020017f222c2022646174617365745f636f6465223a22000000000000000000000000008152506113c3565b9050610ac1818b6113c3565b9050610b02816040518060400160405280601481526020017f222c202273656c65637465645f62616e64223a220000000000000000000000008152506113c3565b9050610b0e818a6113c3565b9050610b4f816040518060400160405280601181526020017f222c2022696d6167655f7363616c65223a0000000000000000000000000000008152506113c3565b9050610b5b81896113c3565b9050610b9c816040518060400160405280601081526020017f2c202273746172745f64617465223a22000000000000000000000000000000008152506113c3565b9050610ba881886113c3565b9050610be9816040518060400160405280600f81526020017f222c2022656e645f64617465223a2200000000000000000000000000000000008152506113c3565b9050610bf581876113c3565b9050610c198160405180606001604052806036815260200161305f603691396113c3565b905060005b8551811015610dd957858181518110610c3a57610c39612e62565b5b602002602001015160200151600c6000888481518110610c5d57610c5c612e62565b5b60200260200101516000015181526020019081526020016000209080519060200190610c8a929190611d64565b50610cad8260405180606001604052806025815260200161303a602591396113c3565b9150610cdf82610cda888481518110610cc957610cc8612e62565b5b6020026020010151600001516113ef565b6113c3565b9150610d03826040518060600160405280602d8152602001613095602d91396113c3565b9150610d2d82878381518110610d1c57610d1b612e62565b5b6020026020010151602001516113c3565b9150610d6e826040518060400160405280600281526020017f7d7d0000000000000000000000000000000000000000000000000000000000008152506113c3565b915060018651610d7e9190612b96565b8114610dc657610dc3826040518060400160405280600181526020017f2c000000000000000000000000000000000000000000000000000000000000008152506113c3565b91505b8080610dd190612d2d565b915050610c1e565b50610e19816040518060400160405280600381526020017f5d7d7d00000000000000000000000000000000000000000000000000000000008152506113c3565b90506000819050610e6a6040518060400160405280600481526020017f646174610000000000000000000000000000000000000000000000000000000081525082856115509092919063ffffffff16565b610e748385611583565b50505050505050505050505050565b60006001821415610eaa5773615fbe6372676474d9e6933d310469c9b68e97269050610f68565b6002821415610ecf57730b9d5d9136855f6fec3c0993fee6e9ce8a2978469050610f68565b6003821415610ef4577384b9b910527ad5c03a9ca831909e21e236ea7b069050610f68565b6004821415610f195773326c977e6efc84e512bb9c30f76e30c160ed06fb9050610f68565b6005821415610f3e577301be23585060835e02b77ef475b0cc51aa1e07099050610f68565b6006821415610f635773326c977e6efc84e512bb9c30f76e30c160ed06fb9050610f68565b600090505b919050565b836005600082815260200190815260200160002060009054906101000a900473ffffffffffffffffffffffffffffffffffffffff1673ffffffffffffffffffffffffffffffffffffffff163373ffffffffffffffffffffffffffffffffffffffff161461100f576040517f08c379a000000000000000000000000000000000000000000000000000000000815260040161100690612816565b60405180910390fd5b6005600082815260200190815260200160002060006101000a81549073ffffffffffffffffffffffffffffffffffffffff0219169055807f7cc135e0cebb02c3480ae5d74d377283180a2601f8f644edf7987b009316c63a60405160405180910390a28360078190555082826008919061108a929190611dea565b506008600b600060095481526020019081526020016000209080546110ae90612cca565b6110b9929190611e70565b5060016009546110c99190612944565b6009819055505050505050565b6060600182141561111e576040518060400160405280601081526020017f417262697472756d2052696e6b65627900000000000000000000000000000000815250905061128f565b6002821415611164576040518060400160405280600e81526020017f4176616c616e6368652046756a69000000000000000000000000000000000000815250905061128f565b60038214156111aa576040518060400160405280600f81526020017f42696e616e636520546573746e65740000000000000000000000000000000000815250905061128f565b60048214156111f0576040518060400160405280600f81526020017f457468657265756d20476f65726c690000000000000000000000000000000000815250905061128f565b6005821415611236576040518060400160405280601081526020017f457468657265756d2052696e6b65627900000000000000000000000000000000815250905061128f565b600682141561127c576040518060400160405280600e81526020017f506f6c79676f6e204d756d626169000000000000000000000000000000000000815250905061128f565b6040518060200160405280600081525090505b919050565b6060600c600083815260200190815260200160002080546112b490612cca565b80601f01602080910402602001604051908101604052809291908181526020018280546112e090612cca565b801561132d5780601f106113025761010080835404028352916020019161132d565b820191906000526020600020905b81548152906001019060200180831161131057829003601f168201915b50505050509050919050565b60008160405160200161134c9190612689565b60405160208183030381529060405280519060200120836040516020016113739190612689565b6040516020818303038152906040528051906020012014905092915050565b61139a611efd565b6113a2611efd565b6113b9858585846115ba909392919063ffffffff16565b9150509392505050565b606082826040516020016113d89291906126a0565b604051602081830303815290604052905092915050565b60606000821415611437576040518060400160405280600181526020017f3000000000000000000000000000000000000000000000000000000000000000815250905061154b565b600082905060005b6000821461146957808061145290612d2d565b915050600a82611462919061299a565b915061143f565b60008167ffffffffffffffff81111561148557611484612e91565b5b6040519080825280601f01601f1916602001820160405280156114b75781602001600182028036833780820191505090505b5090505b60008514611544576001826114d09190612b96565b9150600a856114df9190612da4565b60306114eb9190612944565b60f81b81838151811061150157611500612e62565b5b60200101907effffffffffffffffffffffffffffffffffffffffffffffffffffffffffffff1916908160001a905350600a8561153d919061299a565b94506114bb565b8093505050505b919050565b61156782846080015161166a90919063ffffffff16565b61157e81846080015161166a90919063ffffffff16565b505050565b60006115b2600360009054906101000a900473ffffffffffffffffffffffffffffffffffffffff16848461168f565b905092915050565b6115c2611efd565b6115d28560800151610100611759565b508385600001818152505082856020019073ffffffffffffffffffffffffffffffffffffffff16908173ffffffffffffffffffffffffffffffffffffffff16815250508185604001907bffffffffffffffffffffffffffffffffffffffffffffffffffffffff191690817bffffffffffffffffffffffffffffffffffffffffffffffffffffffff191681525050849050949350505050565b61167782600383516117c3565b61168a818361194890919063ffffffff16565b505050565b60008060045490506001816116a49190612944565b6004819055506000633c6d41b960e01b600080876000015188604001518660028b60800151600001516040516024016116e397969594939291906126ea565b604051602081830303815290604052907bffffffffffffffffffffffffffffffffffffffffffffffffffffffff19166020820180517bffffffffffffffffffffffffffffffffffffffffffffffffffffffff8381831617835250505050905061174e8683868461196a565b925050509392505050565b611761611f6a565b60006020836117709190612da4565b1461179c576020826117829190612da4565b602061178e9190612b96565b826117999190612944565b91505b81836020018181525050604051808452600081528281016020016040525082905092915050565b60178167ffffffffffffffff16116117fa576117f48160058460ff16901b60ff161784611b0e90919063ffffffff16565b50611943565b60ff8167ffffffffffffffff161161185057611829601860058460ff16901b1784611b0e90919063ffffffff16565b5061184a8167ffffffffffffffff16600185611b2e9092919063ffffffff16565b50611942565b61ffff8167ffffffffffffffff16116118a757611880601960058460ff16901b1784611b0e90919063ffffffff16565b506118a18167ffffffffffffffff16600285611b2e9092919063ffffffff16565b50611941565b63ffffffff8167ffffffffffffffff1611611900576118d9601a60058460ff16901b1784611b0e90919063ffffffff16565b506118fa8167ffffffffffffffff16600485611b2e9092919063ffffffff16565b50611940565b61191d601b60058460ff16901b1784611b0e90919063ffffffff16565b5061193e8167ffffffffffffffff16600885611b2e9092919063ffffffff16565b505b5b5b5b505050565b611950611f6a565b61196283846000015151848551611b50565b905092915050565b6000308460405160200161197f92919061265d565b604051602081830303815290604052805190602001209050846005600083815260200190815260200160002060006101000a81548173ffffffffffffffffffffffffffffffffffffffff021916908373ffffffffffffffffffffffffffffffffffffffff160217905550807fb5e6e01e79f91267dc17b4e6314d5d4d03593d2ceee0fbb452b750bd70ea5af960405160405180910390a2600260009054906101000a900473ffffffffffffffffffffffffffffffffffffffff1673ffffffffffffffffffffffffffffffffffffffff16634000aea08685856040518463ffffffff1660e01b8152600401611a7593929190612760565b602060405180830381600087803b158015611a8f57600080fd5b505af1158015611aa3573d6000803e3d6000fd5b505050506040513d601f19601f82011682018060405250810190611ac791906121f8565b611b06576040517f08c379a0000000000000000000000000000000000000000000000000000000008152600401611afd906127f6565b60405180910390fd5b949350505050565b611b16611f6a565b611b268384600001515184611c3f565b905092915050565b611b36611f6a565b611b47848560000151518585611c96565b90509392505050565b611b58611f6a565b8251821115611b6657600080fd5b84602001518285611b779190612944565b1115611bac57611bab856002611b9c88602001518887611b979190612944565b611d24565b611ba69190612b3c565b611d40565b5b600080865180518760208301019350808887011115611bcb5787860182525b60208701925050505b60208410611c125780518252602082611bed9190612944565b9150602081611bfc9190612944565b9050602084611c0b9190612b96565b9350611bd4565b60006001856020036101000a03905080198251168184511681811785525050508692505050949350505050565b611c47611f6a565b83602001518310611c6d57611c6c8460028660200151611c679190612b3c565b611d40565b5b8351805160208583010184815381861415611c89576001820183525b5050508390509392505050565b611c9e611f6a565b84602001518483611caf9190612944565b1115611cd757611cd68560028685611cc79190612944565b611cd19190612b3c565b611d40565b5b6000600183610100611ce99190612a1e565b611cf39190612b96565b90508551838682010185831982511617815281518588011115611d165784870182525b505085915050949350505050565b600081831115611d3657829050611d3a565b8190505b92915050565b600082600001519050611d538383611759565b50611d5e8382611948565b50505050565b828054611d7090612cca565b90600052602060002090601f016020900481019282611d925760008555611dd9565b82601f10611dab57805160ff1916838001178555611dd9565b82800160010185558215611dd9579182015b82811115611dd8578251825591602001919060010190611dbd565b5b509050611de69190611f84565b5090565b828054611df690612cca565b90600052602060002090601f016020900481019282611e185760008555611e5f565b82601f10611e3157803560ff1916838001178555611e5f565b82800160010185558215611e5f579182015b82811115611e5e578235825591602001919060010190611e43565b5b509050611e6c9190611f84565b5090565b828054611e7c90612cca565b90600052602060002090601f016020900481019282611e9e5760008555611eec565b82601f10611eaf5780548555611eec565b82800160010185558215611eec57600052602060002091601f016020900482015b82811115611eeb578254825591600101919060010190611ed0565b5b509050611ef99190611f84565b5090565b6040518060a0016040528060008019168152602001600073ffffffffffffffffffffffffffffffffffffffff16815260200160007bffffffffffffffffffffffffffffffffffffffffffffffffffffffff1916815260200160008152602001611f64611f6a565b81525090565b604051806040016040528060608152602001600081525090565b5b80821115611f9d576000816000905550600101611f85565b5090565b6000611fb4611faf846128a4565b61287f565b90508083825260208201905082856020860282011115611fd757611fd6612ed4565b5b60005b8581101561202557813567ffffffffffffffff811115611ffd57611ffc612ec5565b5b80860161200a8982612177565b85526020850194506020840193505050600181019050611fda565b5050509392505050565b600061204261203d846128d0565b61287f565b90508281526020810184848401111561205e5761205d612ed9565b5b612069848285612c88565b509392505050565b600082601f83011261208657612085612ec5565b5b8135612096848260208601611fa1565b91505092915050565b6000815190506120ae81612fdd565b92915050565b6000813590506120c381612ff4565b92915050565b6000815190506120d881612ff4565b92915050565b6000813590506120ed8161300b565b92915050565b60008083601f84011261210957612108612ec5565b5b8235905067ffffffffffffffff81111561212657612125612ec0565b5b60208301915083600182028301111561214257612141612ed4565b5b9250929050565b600082601f83011261215e5761215d612ec5565b5b813561216e84826020860161202f565b91505092915050565b60006040828403121561218d5761218c612eca565b5b612197604061287f565b905060006121a7848285016121e3565b600083015250602082013567ffffffffffffffff8111156121cb576121ca612ecf565b5b6121d784828501612149565b60208301525092915050565b6000813590506121f281613022565b92915050565b60006020828403121561220e5761220d612ee3565b5b600061221c8482850161209f565b91505092915050565b60006020828403121561223b5761223a612ee3565b5b6000612249848285016120c9565b91505092915050565b6000806000806060858703121561226c5761226b612ee3565b5b600061227a878288016120b4565b945050602061228b878288016120de565b935050604085013567ffffffffffffffff8111156122ac576122ab612ede565b5b6122b8878288016120f3565b925092505092959194509250565b600080600080600080600060e0888a0312156122e5576122e4612ee3565b5b600088013567ffffffffffffffff81111561230357612302612ede565b5b61230f8a828b01612149565b975050602088013567ffffffffffffffff8111156123305761232f612ede565b5b61233c8a828b01612149565b965050604088013567ffffffffffffffff81111561235d5761235c612ede565b5b6123698a828b01612149565b955050606088013567ffffffffffffffff81111561238a57612389612ede565b5b6123968a828b01612149565b945050608088013567ffffffffffffffff8111156123b7576123b6612ede565b5b6123c38a828b01612149565b93505060a088013567ffffffffffffffff8111156123e4576123e3612ede565b5b6123f08a828b01612149565b92505060c088013567ffffffffffffffff81111561241157612410612ede565b5b61241d8a828b01612071565b91505092959891949750929550565b60006020828403121561244257612441612ee3565b5b6000612450848285016121e3565b91505092915050565b600080604083850312156124705761246f612ee3565b5b600061247e858286016121e3565b925050602083013567ffffffffffffffff81111561249f5761249e612ede565b5b6124ab85828601612149565b9150509250929050565b6124be81612bca565b82525050565b6124cd81612be8565b82525050565b6124dc81612bf2565b82525050565b60006124ed82612901565b6124f78185612917565b9350612507818560208601612c97565b61251081612ee8565b840191505092915050565b61252c61252782612c52565b612d76565b82525050565b61253b81612c1e565b82525050565b600061254c8261290c565b6125568185612928565b9350612566818560208601612c97565b61256f81612ee8565b840191505092915050565b60006125858261290c565b61258f8185612939565b935061259f818560208601612c97565b80840191505092915050565b60006125b8602383612928565b91506125c382612f13565b604082019050919050565b60006125db600e83612928565b91506125e682612f62565b602082019050919050565b60006125fe600083612939565b915061260982612f8b565b600082019050919050565b6000612621602883612928565b915061262c82612f8e565b604082019050919050565b61264081612c48565b82525050565b61265761265282612c48565b612d9a565b82525050565b6000612669828561251b565b6014820191506126798284612646565b6020820191508190509392505050565b6000612695828461257a565b915081905092915050565b60006126ac828561257a565b91506126b7826125f1565b91506126c3828461257a565b91508190509392505050565b60006020820190506126e460008301846124b5565b92915050565b600060e0820190506126ff600083018a6124b5565b61270c6020830189612637565b61271960408301886124c4565b61272660608301876124d3565b6127336080830186612637565b61274060a0830185612637565b81810360c083015261275281846124e2565b905098975050505050505050565b600060608201905061277560008301866124b5565b6127826020830185612637565b818103604083015261279481846124e2565b9050949350505050565b60006020820190506127b360008301846124c4565b92915050565b60006020820190506127ce6000830184612532565b92915050565b600060208201905081810360008301526127ee8184612541565b905092915050565b6000602082019050818103600083015261280f816125ab565b9050919050565b6000602082019050818103600083015261282f81612614565b9050919050565b600060208201905061284b6000830184612637565b92915050565b60006040820190506128666000830184612637565b8181036020830152612877816125ce565b905092915050565b600061288961289a565b90506128958282612cfc565b919050565b6000604051905090565b600067ffffffffffffffff8211156128bf576128be612e91565b5b602082029050602081019050919050565b600067ffffffffffffffff8211156128eb576128ea612e91565b5b6128f482612ee8565b9050602081019050919050565b600081519050919050565b600081519050919050565b600082825260208201905092915050565b600082825260208201905092915050565b600081905092915050565b600061294f82612c48565b915061295a83612c48565b9250827fffffffffffffffffffffffffffffffffffffffffffffffffffffffffffffffff0382111561298f5761298e612dd5565b5b828201905092915050565b60006129a582612c48565b91506129b083612c48565b9250826129c0576129bf612e04565b5b828204905092915050565b6000808291508390505b6001851115612a15578086048111156129f1576129f0612dd5565b5b6001851615612a005780820291505b8081029050612a0e85612f06565b94506129d5565b94509492505050565b6000612a2982612c48565b9150612a3483612c48565b9250612a617fffffffffffffffffffffffffffffffffffffffffffffffffffffffffffffffff8484612a69565b905092915050565b600082612a795760019050612b35565b81612a875760009050612b35565b8160018114612a9d5760028114612aa757612ad6565b6001915050612b35565b60ff841115612ab957612ab8612dd5565b5b8360020a915084821115612ad057612acf612dd5565b5b50612b35565b5060208310610133831016604e8410600b8410161715612b0b5782820a905083811115612b0657612b05612dd5565b5b612b35565b612b1884848460016129cb565b92509050818404811115612b2f57612b2e612dd5565b5b81810290505b9392505050565b6000612b4782612c48565b9150612b5283612c48565b9250817fffffffffffffffffffffffffffffffffffffffffffffffffffffffffffffffff0483118215151615612b8b57612b8a612dd5565b5b828202905092915050565b6000612ba182612c48565b9150612bac83612c48565b925082821015612bbf57612bbe612dd5565b5b828203905092915050565b6000612bd582612c28565b9050919050565b60008115159050919050565b6000819050919050565b60007fffffffff0000000000000000000000000000000000000000000000000000000082169050919050565b6000819050919050565b600073ffffffffffffffffffffffffffffffffffffffff82169050919050565b6000819050919050565b6000612c5d82612c64565b9050919050565b6000612c6f82612c76565b9050919050565b6000612c8182612c28565b9050919050565b82818337600083830152505050565b60005b83811015612cb5578082015181840152602081019050612c9a565b83811115612cc4576000848401525b50505050565b60006002820490506001821680612ce257607f821691505b60208210811415612cf657612cf5612e33565b5b50919050565b612d0582612ee8565b810181811067ffffffffffffffff82111715612d2457612d23612e91565b5b80604052505050565b6000612d3882612c48565b91507fffffffffffffffffffffffffffffffffffffffffffffffffffffffffffffffff821415612d6b57612d6a612dd5565b5b600182019050919050565b6000612d8182612d88565b9050919050565b6000612d9382612ef9565b9050919050565b6000819050919050565b6000612daf82612c48565b9150612dba83612c48565b925082612dca57612dc9612e04565b5b828206905092915050565b7f4e487b7100000000000000000000000000000000000000000000000000000000600052601160045260246000fd5b7f4e487b7100000000000000000000000000000000000000000000000000000000600052601260045260246000fd5b7f4e487b7100000000000000000000000000000000000000000000000000000000600052602260045260246000fd5b7f4e487b7100000000000000000000000000000000000000000000000000000000600052603260045260246000fd5b7f4e487b7100000000000000000000000000000000000000000000000000000000600052604160045260246000fd5b600080fd5b600080fd5b600080fd5b600080fd5b600080fd5b600080fd5b600080fd5b600080fd5b6000601f19601f8301169050919050565b60008160601b9050919050565b60008160011c9050919050565b7f756e61626c6520746f207472616e73666572416e6443616c6c20746f206f726160008201527f636c650000000000000000000000000000000000000000000000000000000000602082015250565b7f67656f2d73746174697374696373000000000000000000000000000000000000600082015250565b50565b7f536f75726365206d75737420626520746865206f7261636c65206f662074686560008201527f2072657175657374000000000000000000000000000000000000000000000000602082015250565b612fe681612bdc565b8114612ff157600080fd5b50565b612ffd81612be8565b811461300857600080fd5b50565b61301481612c1e565b811461301f57600080fd5b50565b61302b81612c48565b811461303657600080fd5b5056fe7b2274797065223a2246656174757265222c2270726f70657274696573223a7b226964223a222c202267656f6d65747279223a7b2274797065223a2246656174757265436f6c6c656374696f6e222c226665617475726573223a5b7d2c2267656f6d65747279223a7b2274797065223a22506f6c79676f6e222c22636f6f7264696e61746573223aa2646970667358221220717c6ed0694b7495a466cf069d767c82a965c8a7fa9e72c8833769a5ac5ab7b764736f6c63430008070033608060405234801561001057600080fd5b50610e61806100206000396000f3fe608060405234801561001057600080fd5b506004361061004c5760003560e01c8063201f6754146100515780638894291e14610081578063a6a7dcb2146100b1578063c063a6e7146100e1575b600080fd5b61006b60048036038101906100669190610b0a565b610111565b6040516100789190610c32565b60405180910390f35b61009b60048036038101906100969190610b37565b6101fb565b6040516100a89190610c4d565b60405180910390f35b6100cb60048036038101906100c69190610b0a565b610784565b6040516100d89190610c32565b60405180910390f35b6100fb60048036038101906100f69190610b0a565b61086e565b6040516101089190610c68565b60405180910390f35b6000600182141561013857733706bdd2d30474a5069e1451ab860a2570b1c24990506101f6565b600282141561015d577360661168f1228e62403e804813979588d0c17e3b90506101f6565b60038214156101825773bb370f829bdb6fc44f3d34e2a2107578bb2c3f0b90506101f6565b60048214156101a75773a5045d3fd2b84e527713fcefa2f73def4860128890506101f6565b60058214156101cc5773105a6bc318dcf3fc73472c8833ccd7c684449b9090506101f6565b60068214156101f15773f77f8d0691f15c4f4b51cd1fb6b8d9c9fd5143d990506101f6565b600090505b919050565b600060018314156102e757610245826040518060400160405280600e81526020017f67656f2d73746174697374696373000000000000000000000000000000000000815250610a2c565b15610272577f3232613733383464346536383437633961643439646166393537616666646562905061077e565b6102b1826040518060400160405280600d81526020017f666972652d616e616c7973697300000000000000000000000000000000000000815250610a2c565b156102de577f6436333966383134376338333433306661303136336231343639333565623565905061077e565b6000905061077e565b60028314156103d15761032f826040518060400160405280600e81526020017f67656f2d73746174697374696373000000000000000000000000000000000000815250610a2c565b1561035c577f3732643936613563653035613436623362653861623337643632626561653466905061077e565b61039b826040518060400160405280600d81526020017f666972652d616e616c7973697300000000000000000000000000000000000000815250610a2c565b156103c8577f6134343033346162343133373465653838383362636434613139363737393433905061077e565b6000905061077e565b60038314156104bb57610419826040518060400160405280600e81526020017f67656f2d73746174697374696373000000000000000000000000000000000000815250610a2c565b15610446577f3635363363313335333732613437303838316237666665326237643830613064905061077e565b610485826040518060400160405280600d81526020017f666972652d616e616c7973697300000000000000000000000000000000000000815250610a2c565b156104b2577f6135343738613437636537633439306238326437306664343930666437663962905061077e565b6000905061077e565b60048314156105a557610503826040518060400160405280600e81526020017f67656f2d73746174697374696373000000000000000000000000000000000000815250610a2c565b15610530577f3662633838346361316638653465373338343839366633636437346536373963905061077e565b61056f826040518060400160405280600d81526020017f666972652d616e616c7973697300000000000000000000000000000000000000815250610a2c565b1561059c577f3064303033366465636162373430326239303465303338323131643430393936905061077e565b6000905061077e565b600583141561068f576105ed826040518060400160405280600e81526020017f67656f2d73746174697374696373000000000000000000000000000000000000815250610a2c565b1561061a577f6633366531626636346339303462623138363461653036303933613639666536905061077e565b610659826040518060400160405280600d81526020017f666972652d616e616c7973697300000000000000000000000000000000000000815250610a2c565b15610686577f3536333366373535373665393464336262653630346637653061376366336462905061077e565b6000905061077e565b6006831415610779576106d7826040518060400160405280600e81526020017f67656f2d73746174697374696373000000000000000000000000000000000000815250610a2c565b15610704577f3465353063343965623130613465306562653638653065666364343035343864905061077e565b610743826040518060400160405280600d81526020017f666972652d616e616c7973697300000000000000000000000000000000000000815250610a2c565b15610770577f3936303465316262613461313437366462333365666464336562393135373834905061077e565b6000905061077e565b600090505b92915050565b600060018214156107ab5773615fbe6372676474d9e6933d310469c9b68e97269050610869565b60028214156107d057730b9d5d9136855f6fec3c0993fee6e9ce8a2978469050610869565b60038214156107f5577384b9b910527ad5c03a9ca831909e21e236ea7b069050610869565b600482141561081a5773326c977e6efc84e512bb9c30f76e30c160ed06fb9050610869565b600582141561083f577301be23585060835e02b77ef475b0cc51aa1e07099050610869565b60068214156108645773326c977e6efc84e512bb9c30f76e30c160ed06fb9050610869565b600090505b919050565b606060018214156108b6576040518060400160405280601081526020017f417262697472756d2052696e6b656279000000000000000000000000000000008152509050610a27565b60028214156108fc576040518060400160405280600e81526020017f4176616c616e6368652046756a690000000000000000000000000000000000008152509050610a27565b6003821415610942576040518060400160405280600f81526020017f42696e616e636520546573746e657400000000000000000000000000000000008152509050610a27565b6004821415610988576040518060400160405280600f81526020017f457468657265756d20476f65726c6900000000000000000000000000000000008152509050610a27565b60058214156109ce576040518060400160405280601081526020017f457468657265756d2052696e6b656279000000000000000000000000000000008152509050610a27565b6006821415610a14576040518060400160405280600e81526020017f506f6c79676f6e204d756d6261690000000000000000000000000000000000008152509050610a27565b6040518060200160405280600081525090505b919050565b600081604051602001610a3f9190610c1b565b6040516020818303038152906040528051906020012083604051602001610a669190610c1b565b6040516020818303038152906040528051906020012014905092915050565b6000610a98610a9384610caf565b610c8a565b905082815260208101848484011115610ab457610ab3610df4565b5b610abf848285610d4d565b509392505050565b600082601f830112610adc57610adb610def565b5b8135610aec848260208601610a85565b91505092915050565b600081359050610b0481610e14565b92915050565b600060208284031215610b2057610b1f610dfe565b5b6000610b2e84828501610af5565b91505092915050565b60008060408385031215610b4e57610b4d610dfe565b5b6000610b5c85828601610af5565b925050602083013567ffffffffffffffff811115610b7d57610b7c610df9565b5b610b8985828601610ac7565b9150509250929050565b610b9c81610d07565b82525050565b610bab81610d19565b82525050565b6000610bbc82610ce0565b610bc68185610ceb565b9350610bd6818560208601610d5c565b610bdf81610e03565b840191505092915050565b6000610bf582610ce0565b610bff8185610cfc565b9350610c0f818560208601610d5c565b80840191505092915050565b6000610c278284610bea565b915081905092915050565b6000602082019050610c476000830184610b93565b92915050565b6000602082019050610c626000830184610ba2565b92915050565b60006020820190508181036000830152610c828184610bb1565b905092915050565b6000610c94610ca5565b9050610ca08282610d8f565b919050565b6000604051905090565b600067ffffffffffffffff821115610cca57610cc9610dc0565b5b610cd382610e03565b9050602081019050919050565b600081519050919050565b600082825260208201905092915050565b600081905092915050565b6000610d1282610d23565b9050919050565b6000819050919050565b600073ffffffffffffffffffffffffffffffffffffffff82169050919050565b6000819050919050565b82818337600083830152505050565b60005b83811015610d7a578082015181840152602081019050610d5f565b83811115610d89576000848401525b50505050565b610d9882610e03565b810181811067ffffffffffffffff82111715610db757610db6610dc0565b5b80604052505050565b7f4e487b7100000000000000000000000000000000000000000000000000000000600052604160045260246000fd5b600080fd5b600080fd5b600080fd5b600080fd5b6000601f19601f8301169050919050565b610e1d81610d43565b8114610e2857600080fd5b5056fea26469706673582212203c953b6cdf2986025991a468f365a46867f7d2931abb2edc6e3a0b0e8761299e64736f6c63430008070033",
    "linkReferences": {},
    "deployedLinkReferences": {}
}