{
    "_format": "hh-sol-artifact-1",
    "contractName": "OracleFacingFireConsumer",
    "sourceName": "contracts/OracleFacingFireConsumer.sol",
    "abi": [
        {
            "inputs": [
                {
                    "internalType": "uint256",
                    "name": "_operatorNumber",
                    "type": "uint256"
                }
            ],
            "stateMutability": "nonpayable",
            "type": "constructor"
        },
        {
            "anonymous": false,
            "inputs": [
                {
                    "indexed": true,
                    "internalType": "bytes32",
                    "name": "id",
                    "type": "bytes32"
                }
            ],
            "name": "ChainlinkCancelled",
            "type": "event"
        },
        {
            "anonymous": false,
            "inputs": [
                {
                    "indexed": true,
                    "internalType": "bytes32",
                    "name": "id",
                    "type": "bytes32"
                }
            ],
            "name": "ChainlinkFulfilled",
            "type": "event"
        },
        {
            "anonymous": false,
            "inputs": [
                {
                    "indexed": true,
                    "internalType": "bytes32",
                    "name": "id",
                    "type": "bytes32"
                }
            ],
            "name": "ChainlinkRequested",
            "type": "event"
        },
        {
            "inputs": [
                {
                    "internalType": "bytes32",
                    "name": "requestId",
                    "type": "bytes32"
                },
                {
                    "internalType": "uint256[]",
                    "name": "fireData",
                    "type": "uint256[]"
                },
                {
                    "internalType": "string",
                    "name": "cidValue",
                    "type": "string"
                }
            ],
            "name": "fulfillFireData",
            "outputs": [],
            "stateMutability": "nonpayable",
            "type": "function"
        },
        {
            "inputs": [
                {
                    "internalType": "uint256",
                    "name": "index",
                    "type": "uint256"
                }
            ],
            "name": "getCid",
            "outputs": [
                {
                    "internalType": "string",
                    "name": "",
                    "type": "string"
                }
            ],
            "stateMutability": "view",
            "type": "function"
        },
        {
            "inputs": [
                {
                    "internalType": "uint256",
                    "name": "propertyID",
                    "type": "uint256"
                }
            ],
            "name": "getFireData",
            "outputs": [
                {
                    "internalType": "uint256",
                    "name": "",
                    "type": "uint256"
                }
            ],
            "stateMutability": "view",
            "type": "function"
        },
        {
            "inputs": [
                {
                    "internalType": "uint256",
                    "name": "property_id",
                    "type": "uint256"
                }
            ],
            "name": "getGeometry",
            "outputs": [
                {
                    "internalType": "string",
                    "name": "",
                    "type": "string"
                }
            ],
            "stateMutability": "view",
            "type": "function"
        },
        {
            "inputs": [
                {
                    "internalType": "uint256",
                    "name": "operator_number",
                    "type": "uint256"
                },
                {
                    "internalType": "string",
                    "name": "geospatial_category",
                    "type": "string"
                }
            ],
            "name": "jobSpecId",
            "outputs": [
                {
                    "internalType": "bytes32",
                    "name": "",
                    "type": "bytes32"
                }
            ],
            "stateMutability": "pure",
            "type": "function"
        },
        {
            "inputs": [
                {
                    "internalType": "uint256",
                    "name": "operator_number",
                    "type": "uint256"
                }
            ],
            "name": "linkTokenContractAddress",
            "outputs": [
                {
                    "internalType": "address",
                    "name": "",
                    "type": "address"
                }
            ],
            "stateMutability": "pure",
            "type": "function"
        },
        {
            "inputs": [
                {
                    "internalType": "uint256",
                    "name": "operator_number",
                    "type": "uint256"
                }
            ],
            "name": "networkOfOperator",
            "outputs": [
                {
                    "internalType": "string",
                    "name": "",
                    "type": "string"
                }
            ],
            "stateMutability": "pure",
            "type": "function"
        },
        {
            "inputs": [
                {
                    "internalType": "uint256",
                    "name": "operator_number",
                    "type": "uint256"
                }
            ],
            "name": "operatorAddress",
            "outputs": [
                {
                    "internalType": "address",
                    "name": "",
                    "type": "address"
                }
            ],
            "stateMutability": "pure",
            "type": "function"
        },
        {
            "inputs": [
                {
                    "internalType": "string",
                    "name": "dataset_code",
                    "type": "string"
                },
                {
                    "internalType": "string",
                    "name": "selected_band",
                    "type": "string"
                },
                {
                    "internalType": "string",
                    "name": "image_scale",
                    "type": "string"
                },
                {
                    "internalType": "string",
                    "name": "start_date",
                    "type": "string"
                },
                {
                    "internalType": "string",
                    "name": "end_date",
                    "type": "string"
                },
                {
                    "components": [
                        {
                            "internalType": "uint256",
                            "name": "property_id",
                            "type": "uint256"
                        },
                        {
                            "internalType": "string",
                            "name": "coordinates",
                            "type": "string"
                        }
                    ],
                    "internalType": "struct ShambaFireConsumer.Geometry[]",
                    "name": "geometry",
                    "type": "tuple[]"
                }
            ],
            "name": "requestFireData",
            "outputs": [],
            "stateMutability": "nonpayable",
            "type": "function"
        },
        {
            "inputs": [],
            "name": "total_oracle_calls",
            "outputs": [
                {
                    "internalType": "uint256",
                    "name": "",
                    "type": "uint256"
                }
            ],
            "stateMutability": "view",
            "type": "function"
        }
    ],
    "bytecode": "0x608060405260016004556040516200001790620002c7565b604051809103906000f08015801562000034573d6000803e3d6000fd5b50600660006101000a81548173ffffffffffffffffffffffffffffffffffffffff021916908373ffffffffffffffffffffffffffffffffffffffff16021790555060006009553480156200008757600080fd5b5060405162004417380380620044178339818101604052810190620000ad919062000335565b8080600a8190555062000176600660009054906101000a900473ffffffffffffffffffffffffffffffffffffffff1673ffffffffffffffffffffffffffffffffffffffff1663a6a7dcb2836040518263ffffffff1660e01b815260040162000116919062000378565b60206040518083038186803b1580156200012f57600080fd5b505afa15801562000144573d6000803e3d6000fd5b505050506040513d601f19601f820116820180604052508101906200016a919062000303565b6200023f60201b60201c565b62000237600660009054906101000a900473ffffffffffffffffffffffffffffffffffffffff1673ffffffffffffffffffffffffffffffffffffffff1663201f6754836040518263ffffffff1660e01b8152600401620001d7919062000378565b60206040518083038186803b158015620001f057600080fd5b505afa15801562000205573d6000803e3d6000fd5b505050506040513d601f19601f820116820180604052508101906200022b919062000303565b6200028360201b60201c565b50506200040c565b80600260006101000a81548173ffffffffffffffffffffffffffffffffffffffff021916908373ffffffffffffffffffffffffffffffffffffffff16021790555050565b80600360006101000a81548173ffffffffffffffffffffffffffffffffffffffff021916908373ffffffffffffffffffffffffffffffffffffffff16021790555050565b610e81806200359683390190565b600081519050620002e681620003d8565b92915050565b600081519050620002fd81620003f2565b92915050565b6000602082840312156200031c576200031b620003d3565b5b60006200032c84828501620002d5565b91505092915050565b6000602082840312156200034e576200034d620003d3565b5b60006200035e84828501620002ec565b91505092915050565b6200037281620003c9565b82525050565b60006020820190506200038f600083018462000367565b92915050565b6000620003a282620003a9565b9050919050565b600073ffffffffffffffffffffffffffffffffffffffff82169050919050565b6000819050919050565b600080fd5b620003e38162000395565b8114620003ef57600080fd5b50565b620003fd81620003c9565b81146200040957600080fd5b50565b61317a806200041c6000396000f3fe608060405234801561001057600080fd5b506004361061009e5760003560e01c8063a6a7dcb211610066578063a6a7dcb21461016d578063b16abf921461019d578063c063a6e7146101cd578063ca49c137146101fd578063d459dd96146102195761009e565b8063201f6754146100a3578063292058f8146100d35780633beaa6ab146100ef57806374747bff1461011f5780638894291e1461013d575b600080fd5b6100bd60048036038101906100b891906124ce565b610249565b6040516100ca9190612762565b60405180910390f35b6100ed60048036038101906100e89190612309565b610333565b005b610109600480360381019061010491906124ce565b6104f3565b604051610116919061284c565b60405180910390f35b610127610598565b60405161013491906128ae565b60405180910390f35b610157600480360381019061015291906124fb565b61059e565b6040516101649190612831565b60405180910390f35b610187600480360381019061018291906124ce565b610b27565b6040516101949190612762565b60405180910390f35b6101b760048036038101906101b291906124ce565b610c11565b6040516101c491906128ae565b60405180910390f35b6101e760048036038101906101e291906124ce565b610c2e565b6040516101f4919061284c565b60405180910390f35b61021760048036038101906102129190612399565b610dec565b005b610233600480360381019061022e91906124ce565b6112c2565b604051610240919061284c565b60405180910390f35b6000600182141561027057733706bdd2d30474a5069e1451ab860a2570b1c249905061032e565b6002821415610295577360661168f1228e62403e804813979588d0c17e3b905061032e565b60038214156102ba5773bb370f829bdb6fc44f3d34e2a2107578bb2c3f0b905061032e565b60048214156102df5773a5045d3fd2b84e527713fcefa2f73def48601288905061032e565b60058214156103045773105a6bc318dcf3fc73472c8833ccd7c684449b90905061032e565b60068214156103295773f77f8d0691f15c4f4b51cd1fb6b8d9c9fd5143d9905061032e565b600090505b919050565b836005600082815260200190815260200160002060009054906101000a900473ffffffffffffffffffffffffffffffffffffffff1673ffffffffffffffffffffffffffffffffffffffff163373ffffffffffffffffffffffffffffffffffffffff16146103d5576040517f08c379a00000000000000000000000000000000000000000000000000000000081526004016103cc9061288e565b60405180910390fd5b6005600082815260200190815260200160002060006101000a81549073ffffffffffffffffffffffffffffffffffffffff0219169055807f7cc135e0cebb02c3480ae5d74d377283180a2601f8f644edf7987b009316c63a60405160405180910390a260005b84518110156104955784818151811061045757610456612efc565b5b60200260200101516007600060018461047091906129e8565b815260200190815260200160002081905550808061048d90612dc7565b91505061043b565b508282600891906104a7929190611d92565b506008600b600060095481526020019081526020016000209080546104cb90612d64565b6104d6929190611e18565b5060016009546104e691906129e8565b6009819055505050505050565b6060600b6000838152602001908152602001600020805461051390612d64565b80601f016020809104026020016040519081016040528092919081815260200182805461053f90612d64565b801561058c5780601f106105615761010080835404028352916020019161058c565b820191906000526020600020905b81548152906001019060200180831161056f57829003601f168201915b50505050509050919050565b60095481565b6000600183141561068a576105e8826040518060400160405280600e81526020017f67656f2d73746174697374696373000000000000000000000000000000000000815250611367565b15610615577f32326137333834643465363834376339616434396461663935376166666465629050610b21565b610654826040518060400160405280600d81526020017f666972652d616e616c7973697300000000000000000000000000000000000000815250611367565b15610681577f64363339663831343763383334333066613031363362313436393335656235659050610b21565b60009050610b21565b6002831415610774576106d2826040518060400160405280600e81526020017f67656f2d73746174697374696373000000000000000000000000000000000000815250611367565b156106ff577f37326439366135636530356134366233626538616233376436326265616534669050610b21565b61073e826040518060400160405280600d81526020017f666972652d616e616c7973697300000000000000000000000000000000000000815250611367565b1561076b577f61343430333461623431333734656538383833626364346131393637373934339050610b21565b60009050610b21565b600383141561085e576107bc826040518060400160405280600e81526020017f67656f2d73746174697374696373000000000000000000000000000000000000815250611367565b156107e9577f36353633633133353337326134373038383162376666653262376438306130649050610b21565b610828826040518060400160405280600d81526020017f666972652d616e616c7973697300000000000000000000000000000000000000815250611367565b15610855577f61353437386134376365376334393062383264373066643439306664376639629050610b21565b60009050610b21565b6004831415610948576108a6826040518060400160405280600e81526020017f67656f2d73746174697374696373000000000000000000000000000000000000815250611367565b156108d3577f36626338383463613166386534653733383438393666336364373465363739639050610b21565b610912826040518060400160405280600d81526020017f666972652d616e616c7973697300000000000000000000000000000000000000815250611367565b1561093f577f30643030333664656361623734303262393034653033383231316434303939369050610b21565b60009050610b21565b6005831415610a3257610990826040518060400160405280600e81526020017f67656f2d73746174697374696373000000000000000000000000000000000000815250611367565b156109bd577f66333665316266363463393034626231383634616530363039336136396665369050610b21565b6109fc826040518060400160405280600d81526020017f666972652d616e616c7973697300000000000000000000000000000000000000815250611367565b15610a29577f35363333663735353736653934643362626536303466376530613763663364629050610b21565b60009050610b21565b6006831415610b1c57610a7a826040518060400160405280600e81526020017f67656f2d73746174697374696373000000000000000000000000000000000000815250611367565b15610aa7577f34653530633439656231306134653065626536386530656663643430353438649050610b21565b610ae6826040518060400160405280600d81526020017f666972652d616e616c7973697300000000000000000000000000000000000000815250611367565b15610b13577f39363034653162626134613134373664623333656664643365623931353738349050610b21565b60009050610b21565b600090505b92915050565b60006001821415610b4e5773615fbe6372676474d9e6933d310469c9b68e97269050610c0c565b6002821415610b7357730b9d5d9136855f6fec3c0993fee6e9ce8a2978469050610c0c565b6003821415610b98577384b9b910527ad5c03a9ca831909e21e236ea7b069050610c0c565b6004821415610bbd5773326c977e6efc84e512bb9c30f76e30c160ed06fb9050610c0c565b6005821415610be2577301be23585060835e02b77ef475b0cc51aa1e07099050610c0c565b6006821415610c075773326c977e6efc84e512bb9c30f76e30c160ed06fb9050610c0c565b600090505b919050565b600060076000838152602001908152602001600020549050919050565b60606001821415610c76576040518060400160405280601081526020017f417262697472756d2052696e6b656279000000000000000000000000000000008152509050610de7565b6002821415610cbc576040518060400160405280600e81526020017f4176616c616e6368652046756a690000000000000000000000000000000000008152509050610de7565b6003821415610d02576040518060400160405280600f81526020017f42696e616e636520546573746e657400000000000000000000000000000000008152509050610de7565b6004821415610d48576040518060400160405280600f81526020017f457468657265756d20476f65726c6900000000000000000000000000000000008152509050610de7565b6005821415610d8e576040518060400160405280601081526020017f457468657265756d2052696e6b656279000000000000000000000000000000008152509050610de7565b6006821415610dd4576040518060400160405280600e81526020017f506f6c79676f6e204d756d6261690000000000000000000000000000000000008152509050610de7565b6040518060200160405280600081525090505b919050565b6000600660009054906101000a900473ffffffffffffffffffffffffffffffffffffffff1673ffffffffffffffffffffffffffffffffffffffff16638894291e600a546040518263ffffffff1660e01b8152600401610e4b91906128c9565b60206040518083038186803b158015610e6357600080fd5b505afa158015610e77573d6000803e3d6000fd5b505050506040513d601f19601f82011682018060405250810190610e9b91906122dc565b90506000670de0b6b3a764000090506000610ebe833063292058f860e01b6113c0565b90506000610f016040518060400160405280601181526020017f7b22646174617365745f636f6465223a220000000000000000000000000000008152508b6113f1565b9050610f42816040518060400160405280601481526020017f222c202273656c65637465645f62616e64223a220000000000000000000000008152506113f1565b9050610f4e818a6113f1565b9050610f8f816040518060400160405280601181526020017f222c2022696d6167655f7363616c65223a0000000000000000000000000000008152506113f1565b9050610f9b81896113f1565b9050610fdc816040518060400160405280601081526020017f2c202273746172745f64617465223a22000000000000000000000000000000008152506113f1565b9050610fe881886113f1565b9050611029816040518060400160405280600f81526020017f222c2022656e645f64617465223a2200000000000000000000000000000000008152506113f1565b905061103581876113f1565b9050611059816040518060600160405280603681526020016130e2603691396113f1565b905060005b85518110156112195785818151811061107a57611079612efc565b5b602002602001015160200151600c600088848151811061109d5761109c612efc565b5b602002602001015160000151815260200190815260200160002090805190602001906110ca929190611ea5565b506110ed826040518060600160405280602581526020016130bd602591396113f1565b915061111f8261111a88848151811061110957611108612efc565b5b60200260200101516000015161141d565b6113f1565b9150611143826040518060600160405280602d8152602001613118602d91396113f1565b915061116d8287838151811061115c5761115b612efc565b5b6020026020010151602001516113f1565b91506111ae826040518060400160405280600281526020017f7d7d0000000000000000000000000000000000000000000000000000000000008152506113f1565b9150600186516111be9190612c3a565b811461120657611203826040518060400160405280600181526020017f2c000000000000000000000000000000000000000000000000000000000000008152506113f1565b91505b808061121190612dc7565b91505061105e565b50611259816040518060400160405280600381526020017f5d7d7d00000000000000000000000000000000000000000000000000000000008152506113f1565b905060008190506112aa6040518060400160405280600481526020017f6461746100000000000000000000000000000000000000000000000000000000815250828561157e9092919063ffffffff16565b6112b483856115b1565b505050505050505050505050565b6060600c600083815260200190815260200160002080546112e290612d64565b80601f016020809104026020016040519081016040528092919081815260200182805461130e90612d64565b801561135b5780601f106113305761010080835404028352916020019161135b565b820191906000526020600020905b81548152906001019060200180831161133e57829003601f168201915b50505050509050919050565b60008160405160200161137a919061271c565b60405160208183030381529060405280519060200120836040516020016113a1919061271c565b6040516020818303038152906040528051906020012014905092915050565b6113c8611f2b565b6113d0611f2b565b6113e7858585846115e8909392919063ffffffff16565b9150509392505050565b60608282604051602001611406929190612733565b604051602081830303815290604052905092915050565b60606000821415611465576040518060400160405280600181526020017f30000000000000000000000000000000000000000000000000000000000000008152509050611579565b600082905060005b6000821461149757808061148090612dc7565b915050600a826114909190612a3e565b915061146d565b60008167ffffffffffffffff8111156114b3576114b2612f2b565b5b6040519080825280601f01601f1916602001820160405280156114e55781602001600182028036833780820191505090505b5090505b60008514611572576001826114fe9190612c3a565b9150600a8561150d9190612e3e565b603061151991906129e8565b60f81b81838151811061152f5761152e612efc565b5b60200101907effffffffffffffffffffffffffffffffffffffffffffffffffffffffffffff1916908160001a905350600a8561156b9190612a3e565b94506114e9565b8093505050505b919050565b61159582846080015161169890919063ffffffff16565b6115ac81846080015161169890919063ffffffff16565b505050565b60006115e0600360009054906101000a900473ffffffffffffffffffffffffffffffffffffffff1684846116bd565b905092915050565b6115f0611f2b565b6116008560800151610100611787565b508385600001818152505082856020019073ffffffffffffffffffffffffffffffffffffffff16908173ffffffffffffffffffffffffffffffffffffffff16815250508185604001907bffffffffffffffffffffffffffffffffffffffffffffffffffffffff191690817bffffffffffffffffffffffffffffffffffffffffffffffffffffffff191681525050849050949350505050565b6116a582600383516117f1565b6116b8818361197690919063ffffffff16565b505050565b60008060045490506001816116d291906129e8565b6004819055506000633c6d41b960e01b600080876000015188604001518660028b6080015160000151604051602401611711979695949392919061277d565b604051602081830303815290604052907bffffffffffffffffffffffffffffffffffffffffffffffffffffffff19166020820180517bffffffffffffffffffffffffffffffffffffffffffffffffffffffff8381831617835250505050905061177c86838684611998565b925050509392505050565b61178f611f98565b600060208361179e9190612e3e565b146117ca576020826117b09190612e3e565b60206117bc9190612c3a565b826117c791906129e8565b91505b81836020018181525050604051808452600081528281016020016040525082905092915050565b60178167ffffffffffffffff1611611828576118228160058460ff16901b60ff161784611b3c90919063ffffffff16565b50611971565b60ff8167ffffffffffffffff161161187e57611857601860058460ff16901b1784611b3c90919063ffffffff16565b506118788167ffffffffffffffff16600185611b5c9092919063ffffffff16565b50611970565b61ffff8167ffffffffffffffff16116118d5576118ae601960058460ff16901b1784611b3c90919063ffffffff16565b506118cf8167ffffffffffffffff16600285611b5c9092919063ffffffff16565b5061196f565b63ffffffff8167ffffffffffffffff161161192e57611907601a60058460ff16901b1784611b3c90919063ffffffff16565b506119288167ffffffffffffffff16600485611b5c9092919063ffffffff16565b5061196e565b61194b601b60058460ff16901b1784611b3c90919063ffffffff16565b5061196c8167ffffffffffffffff16600885611b5c9092919063ffffffff16565b505b5b5b5b505050565b61197e611f98565b61199083846000015151848551611b7e565b905092915050565b600030846040516020016119ad9291906126f0565b604051602081830303815290604052805190602001209050846005600083815260200190815260200160002060006101000a81548173ffffffffffffffffffffffffffffffffffffffff021916908373ffffffffffffffffffffffffffffffffffffffff160217905550807fb5e6e01e79f91267dc17b4e6314d5d4d03593d2ceee0fbb452b750bd70ea5af960405160405180910390a2600260009054906101000a900473ffffffffffffffffffffffffffffffffffffffff1673ffffffffffffffffffffffffffffffffffffffff16634000aea08685856040518463ffffffff1660e01b8152600401611aa3939291906127f3565b602060405180830381600087803b158015611abd57600080fd5b505af1158015611ad1573d6000803e3d6000fd5b505050506040513d601f19601f82011682018060405250810190611af591906122af565b611b34576040517f08c379a0000000000000000000000000000000000000000000000000000000008152600401611b2b9061286e565b60405180910390fd5b949350505050565b611b44611f98565b611b548384600001515184611c6d565b905092915050565b611b64611f98565b611b75848560000151518585611cc4565b90509392505050565b611b86611f98565b8251821115611b9457600080fd5b84602001518285611ba591906129e8565b1115611bda57611bd9856002611bca88602001518887611bc591906129e8565b611d52565b611bd49190612be0565b611d6e565b5b600080865180518760208301019350808887011115611bf95787860182525b60208701925050505b60208410611c405780518252602082611c1b91906129e8565b9150602081611c2a91906129e8565b9050602084611c399190612c3a565b9350611c02565b60006001856020036101000a03905080198251168184511681811785525050508692505050949350505050565b611c75611f98565b83602001518310611c9b57611c9a8460028660200151611c959190612be0565b611d6e565b5b8351805160208583010184815381861415611cb7576001820183525b5050508390509392505050565b611ccc611f98565b84602001518483611cdd91906129e8565b1115611d0557611d048560028685611cf591906129e8565b611cff9190612be0565b611d6e565b5b6000600183610100611d179190612ac2565b611d219190612c3a565b90508551838682010185831982511617815281518588011115611d445784870182525b505085915050949350505050565b600081831115611d6457829050611d68565b8190505b92915050565b600082600001519050611d818383611787565b50611d8c8382611976565b50505050565b828054611d9e90612d64565b90600052602060002090601f016020900481019282611dc05760008555611e07565b82601f10611dd957803560ff1916838001178555611e07565b82800160010185558215611e07579182015b82811115611e06578235825591602001919060010190611deb565b5b509050611e149190611fb2565b5090565b828054611e2490612d64565b90600052602060002090601f016020900481019282611e465760008555611e94565b82601f10611e575780548555611e94565b82800160010185558215611e9457600052602060002091601f016020900482015b82811115611e93578254825591600101919060010190611e78565b5b509050611ea19190611fb2565b5090565b828054611eb190612d64565b90600052602060002090601f016020900481019282611ed35760008555611f1a565b82601f10611eec57805160ff1916838001178555611f1a565b82800160010185558215611f1a579182015b82811115611f19578251825591602001919060010190611efe565b5b509050611f279190611fb2565b5090565b6040518060a0016040528060008019168152602001600073ffffffffffffffffffffffffffffffffffffffff16815260200160007bffffffffffffffffffffffffffffffffffffffffffffffffffffffff1916815260200160008152602001611f92611f98565b81525090565b604051806040016040528060608152602001600081525090565b5b80821115611fcb576000816000905550600101611fb3565b5090565b6000611fe2611fdd8461291c565b6128f7565b9050808382526020820190508285602086028201111561200557612004612f6e565b5b60005b8581101561205357813567ffffffffffffffff81111561202b5761202a612f5f565b5b808601612038898261222e565b85526020850194506020840193505050600181019050612008565b5050509392505050565b600061207061206b84612948565b6128f7565b9050808382526020820190508285602086028201111561209357612092612f6e565b5b60005b858110156120c357816120a9888261229a565b845260208401935060208301925050600181019050612096565b5050509392505050565b60006120e06120db84612974565b6128f7565b9050828152602081018484840111156120fc576120fb612f73565b5b612107848285612d22565b509392505050565b600082601f83011261212457612123612f5f565b5b8135612134848260208601611fcf565b91505092915050565b600082601f83011261215257612151612f5f565b5b813561216284826020860161205d565b91505092915050565b60008151905061217a81613077565b92915050565b60008135905061218f8161308e565b92915050565b6000815190506121a48161308e565b92915050565b60008083601f8401126121c0576121bf612f5f565b5b8235905067ffffffffffffffff8111156121dd576121dc612f5a565b5b6020830191508360018202830111156121f9576121f8612f6e565b5b9250929050565b600082601f83011261221557612214612f5f565b5b81356122258482602086016120cd565b91505092915050565b60006040828403121561224457612243612f64565b5b61224e60406128f7565b9050600061225e8482850161229a565b600083015250602082013567ffffffffffffffff81111561228257612281612f69565b5b61228e84828501612200565b60208301525092915050565b6000813590506122a9816130a5565b92915050565b6000602082840312156122c5576122c4612f7d565b5b60006122d38482850161216b565b91505092915050565b6000602082840312156122f2576122f1612f7d565b5b600061230084828501612195565b91505092915050565b6000806000806060858703121561232357612322612f7d565b5b600061233187828801612180565b945050602085013567ffffffffffffffff81111561235257612351612f78565b5b61235e8782880161213d565b935050604085013567ffffffffffffffff81111561237f5761237e612f78565b5b61238b878288016121aa565b925092505092959194509250565b60008060008060008060c087890312156123b6576123b5612f7d565b5b600087013567ffffffffffffffff8111156123d4576123d3612f78565b5b6123e089828a01612200565b965050602087013567ffffffffffffffff81111561240157612400612f78565b5b61240d89828a01612200565b955050604087013567ffffffffffffffff81111561242e5761242d612f78565b5b61243a89828a01612200565b945050606087013567ffffffffffffffff81111561245b5761245a612f78565b5b61246789828a01612200565b935050608087013567ffffffffffffffff81111561248857612487612f78565b5b61249489828a01612200565b92505060a087013567ffffffffffffffff8111156124b5576124b4612f78565b5b6124c189828a0161210f565b9150509295509295509295565b6000602082840312156124e4576124e3612f7d565b5b60006124f28482850161229a565b91505092915050565b6000806040838503121561251257612511612f7d565b5b60006125208582860161229a565b925050602083013567ffffffffffffffff81111561254157612540612f78565b5b61254d85828601612200565b9150509250929050565b61256081612c6e565b82525050565b61256f81612c8c565b82525050565b61257e81612c96565b82525050565b600061258f826129a5565b61259981856129bb565b93506125a9818560208601612d31565b6125b281612f82565b840191505092915050565b6125ce6125c982612cec565b612e10565b82525050565b60006125df826129b0565b6125e981856129cc565b93506125f9818560208601612d31565b61260281612f82565b840191505092915050565b6000612618826129b0565b61262281856129dd565b9350612632818560208601612d31565b80840191505092915050565b600061264b6023836129cc565b915061265682612fad565b604082019050919050565b600061266e6000836129dd565b915061267982612ffc565b600082019050919050565b60006126916028836129cc565b915061269c82612fff565b604082019050919050565b60006126b4600d836129cc565b91506126bf8261304e565b602082019050919050565b6126d381612ce2565b82525050565b6126ea6126e582612ce2565b612e34565b82525050565b60006126fc82856125bd565b60148201915061270c82846126d9565b6020820191508190509392505050565b6000612728828461260d565b915081905092915050565b600061273f828561260d565b915061274a82612661565b9150612756828461260d565b91508190509392505050565b60006020820190506127776000830184612557565b92915050565b600060e082019050612792600083018a612557565b61279f60208301896126ca565b6127ac6040830188612566565b6127b96060830187612575565b6127c660808301866126ca565b6127d360a08301856126ca565b81810360c08301526127e58184612584565b905098975050505050505050565b60006060820190506128086000830186612557565b61281560208301856126ca565b81810360408301526128278184612584565b9050949350505050565b60006020820190506128466000830184612566565b92915050565b6000602082019050818103600083015261286681846125d4565b905092915050565b600060208201905081810360008301526128878161263e565b9050919050565b600060208201905081810360008301526128a781612684565b9050919050565b60006020820190506128c360008301846126ca565b92915050565b60006040820190506128de60008301846126ca565b81810360208301526128ef816126a7565b905092915050565b6000612901612912565b905061290d8282612d96565b919050565b6000604051905090565b600067ffffffffffffffff82111561293757612936612f2b565b5b602082029050602081019050919050565b600067ffffffffffffffff82111561296357612962612f2b565b5b602082029050602081019050919050565b600067ffffffffffffffff82111561298f5761298e612f2b565b5b61299882612f82565b9050602081019050919050565b600081519050919050565b600081519050919050565b600082825260208201905092915050565b600082825260208201905092915050565b600081905092915050565b60006129f382612ce2565b91506129fe83612ce2565b9250827fffffffffffffffffffffffffffffffffffffffffffffffffffffffffffffffff03821115612a3357612a32612e6f565b5b828201905092915050565b6000612a4982612ce2565b9150612a5483612ce2565b925082612a6457612a63612e9e565b5b828204905092915050565b6000808291508390505b6001851115612ab957808604811115612a9557612a94612e6f565b5b6001851615612aa45780820291505b8081029050612ab285612fa0565b9450612a79565b94509492505050565b6000612acd82612ce2565b9150612ad883612ce2565b9250612b057fffffffffffffffffffffffffffffffffffffffffffffffffffffffffffffffff8484612b0d565b905092915050565b600082612b1d5760019050612bd9565b81612b2b5760009050612bd9565b8160018114612b415760028114612b4b57612b7a565b6001915050612bd9565b60ff841115612b5d57612b5c612e6f565b5b8360020a915084821115612b7457612b73612e6f565b5b50612bd9565b5060208310610133831016604e8410600b8410161715612baf5782820a905083811115612baa57612ba9612e6f565b5b612bd9565b612bbc8484846001612a6f565b92509050818404811115612bd357612bd2612e6f565b5b81810290505b9392505050565b6000612beb82612ce2565b9150612bf683612ce2565b9250817fffffffffffffffffffffffffffffffffffffffffffffffffffffffffffffffff0483118215151615612c2f57612c2e612e6f565b5b828202905092915050565b6000612c4582612ce2565b9150612c5083612ce2565b925082821015612c6357612c62612e6f565b5b828203905092915050565b6000612c7982612cc2565b9050919050565b60008115159050919050565b6000819050919050565b60007fffffffff0000000000000000000000000000000000000000000000000000000082169050919050565b600073ffffffffffffffffffffffffffffffffffffffff82169050919050565b6000819050919050565b6000612cf782612cfe565b9050919050565b6000612d0982612d10565b9050919050565b6000612d1b82612cc2565b9050919050565b82818337600083830152505050565b60005b83811015612d4f578082015181840152602081019050612d34565b83811115612d5e576000848401525b50505050565b60006002820490506001821680612d7c57607f821691505b60208210811415612d9057612d8f612ecd565b5b50919050565b612d9f82612f82565b810181811067ffffffffffffffff82111715612dbe57612dbd612f2b565b5b80604052505050565b6000612dd282612ce2565b91507fffffffffffffffffffffffffffffffffffffffffffffffffffffffffffffffff821415612e0557612e04612e6f565b5b600182019050919050565b6000612e1b82612e22565b9050919050565b6000612e2d82612f93565b9050919050565b6000819050919050565b6000612e4982612ce2565b9150612e5483612ce2565b925082612e6457612e63612e9e565b5b828206905092915050565b7f4e487b7100000000000000000000000000000000000000000000000000000000600052601160045260246000fd5b7f4e487b7100000000000000000000000000000000000000000000000000000000600052601260045260246000fd5b7f4e487b7100000000000000000000000000000000000000000000000000000000600052602260045260246000fd5b7f4e487b7100000000000000000000000000000000000000000000000000000000600052603260045260246000fd5b7f4e487b7100000000000000000000000000000000000000000000000000000000600052604160045260246000fd5b600080fd5b600080fd5b600080fd5b600080fd5b600080fd5b600080fd5b600080fd5b600080fd5b6000601f19601f8301169050919050565b60008160601b9050919050565b60008160011c9050919050565b7f756e61626c6520746f207472616e73666572416e6443616c6c20746f206f726160008201527f636c650000000000000000000000000000000000000000000000000000000000602082015250565b50565b7f536f75726365206d75737420626520746865206f7261636c65206f662074686560008201527f2072657175657374000000000000000000000000000000000000000000000000602082015250565b7f666972652d616e616c7973697300000000000000000000000000000000000000600082015250565b61308081612c80565b811461308b57600080fd5b50565b61309781612c8c565b81146130a257600080fd5b50565b6130ae81612ce2565b81146130b957600080fd5b5056fe7b2274797065223a2246656174757265222c2270726f70657274696573223a7b226964223a222c202267656f6d65747279223a7b2274797065223a2246656174757265436f6c6c656374696f6e222c226665617475726573223a5b7d2c2267656f6d65747279223a7b2274797065223a22506f6c79676f6e222c22636f6f7264696e61746573223aa2646970667358221220d95caf72112cc61f8f7556214fe4cee03ac0ec02a9c61900897882c71c8c6fa564736f6c63430008070033608060405234801561001057600080fd5b50610e61806100206000396000f3fe608060405234801561001057600080fd5b506004361061004c5760003560e01c8063201f6754146100515780638894291e14610081578063a6a7dcb2146100b1578063c063a6e7146100e1575b600080fd5b61006b60048036038101906100669190610b0a565b610111565b6040516100789190610c32565b60405180910390f35b61009b60048036038101906100969190610b37565b6101fb565b6040516100a89190610c4d565b60405180910390f35b6100cb60048036038101906100c69190610b0a565b610784565b6040516100d89190610c32565b60405180910390f35b6100fb60048036038101906100f69190610b0a565b61086e565b6040516101089190610c68565b60405180910390f35b6000600182141561013857733706bdd2d30474a5069e1451ab860a2570b1c24990506101f6565b600282141561015d577360661168f1228e62403e804813979588d0c17e3b90506101f6565b60038214156101825773bb370f829bdb6fc44f3d34e2a2107578bb2c3f0b90506101f6565b60048214156101a75773a5045d3fd2b84e527713fcefa2f73def4860128890506101f6565b60058214156101cc5773105a6bc318dcf3fc73472c8833ccd7c684449b9090506101f6565b60068214156101f15773f77f8d0691f15c4f4b51cd1fb6b8d9c9fd5143d990506101f6565b600090505b919050565b600060018314156102e757610245826040518060400160405280600e81526020017f67656f2d73746174697374696373000000000000000000000000000000000000815250610a2c565b15610272577f3232613733383464346536383437633961643439646166393537616666646562905061077e565b6102b1826040518060400160405280600d81526020017f666972652d616e616c7973697300000000000000000000000000000000000000815250610a2c565b156102de577f6436333966383134376338333433306661303136336231343639333565623565905061077e565b6000905061077e565b60028314156103d15761032f826040518060400160405280600e81526020017f67656f2d73746174697374696373000000000000000000000000000000000000815250610a2c565b1561035c577f3732643936613563653035613436623362653861623337643632626561653466905061077e565b61039b826040518060400160405280600d81526020017f666972652d616e616c7973697300000000000000000000000000000000000000815250610a2c565b156103c8577f6134343033346162343133373465653838383362636434613139363737393433905061077e565b6000905061077e565b60038314156104bb57610419826040518060400160405280600e81526020017f67656f2d73746174697374696373000000000000000000000000000000000000815250610a2c565b15610446577f3635363363313335333732613437303838316237666665326237643830613064905061077e565b610485826040518060400160405280600d81526020017f666972652d616e616c7973697300000000000000000000000000000000000000815250610a2c565b156104b2577f6135343738613437636537633439306238326437306664343930666437663962905061077e565b6000905061077e565b60048314156105a557610503826040518060400160405280600e81526020017f67656f2d73746174697374696373000000000000000000000000000000000000815250610a2c565b15610530577f3662633838346361316638653465373338343839366633636437346536373963905061077e565b61056f826040518060400160405280600d81526020017f666972652d616e616c7973697300000000000000000000000000000000000000815250610a2c565b1561059c577f3064303033366465636162373430326239303465303338323131643430393936905061077e565b6000905061077e565b600583141561068f576105ed826040518060400160405280600e81526020017f67656f2d73746174697374696373000000000000000000000000000000000000815250610a2c565b1561061a577f6633366531626636346339303462623138363461653036303933613639666536905061077e565b610659826040518060400160405280600d81526020017f666972652d616e616c7973697300000000000000000000000000000000000000815250610a2c565b15610686577f3536333366373535373665393464336262653630346637653061376366336462905061077e565b6000905061077e565b6006831415610779576106d7826040518060400160405280600e81526020017f67656f2d73746174697374696373000000000000000000000000000000000000815250610a2c565b15610704577f3465353063343965623130613465306562653638653065666364343035343864905061077e565b610743826040518060400160405280600d81526020017f666972652d616e616c7973697300000000000000000000000000000000000000815250610a2c565b15610770577f3936303465316262613461313437366462333365666464336562393135373834905061077e565b6000905061077e565b600090505b92915050565b600060018214156107ab5773615fbe6372676474d9e6933d310469c9b68e97269050610869565b60028214156107d057730b9d5d9136855f6fec3c0993fee6e9ce8a2978469050610869565b60038214156107f5577384b9b910527ad5c03a9ca831909e21e236ea7b069050610869565b600482141561081a5773326c977e6efc84e512bb9c30f76e30c160ed06fb9050610869565b600582141561083f577301be23585060835e02b77ef475b0cc51aa1e07099050610869565b60068214156108645773326c977e6efc84e512bb9c30f76e30c160ed06fb9050610869565b600090505b919050565b606060018214156108b6576040518060400160405280601081526020017f417262697472756d2052696e6b656279000000000000000000000000000000008152509050610a27565b60028214156108fc576040518060400160405280600e81526020017f4176616c616e6368652046756a690000000000000000000000000000000000008152509050610a27565b6003821415610942576040518060400160405280600f81526020017f42696e616e636520546573746e657400000000000000000000000000000000008152509050610a27565b6004821415610988576040518060400160405280600f81526020017f457468657265756d20476f65726c6900000000000000000000000000000000008152509050610a27565b60058214156109ce576040518060400160405280601081526020017f457468657265756d2052696e6b656279000000000000000000000000000000008152509050610a27565b6006821415610a14576040518060400160405280600e81526020017f506f6c79676f6e204d756d6261690000000000000000000000000000000000008152509050610a27565b6040518060200160405280600081525090505b919050565b600081604051602001610a3f9190610c1b565b6040516020818303038152906040528051906020012083604051602001610a669190610c1b565b6040516020818303038152906040528051906020012014905092915050565b6000610a98610a9384610caf565b610c8a565b905082815260208101848484011115610ab457610ab3610df4565b5b610abf848285610d4d565b509392505050565b600082601f830112610adc57610adb610def565b5b8135610aec848260208601610a85565b91505092915050565b600081359050610b0481610e14565b92915050565b600060208284031215610b2057610b1f610dfe565b5b6000610b2e84828501610af5565b91505092915050565b60008060408385031215610b4e57610b4d610dfe565b5b6000610b5c85828601610af5565b925050602083013567ffffffffffffffff811115610b7d57610b7c610df9565b5b610b8985828601610ac7565b9150509250929050565b610b9c81610d07565b82525050565b610bab81610d19565b82525050565b6000610bbc82610ce0565b610bc68185610ceb565b9350610bd6818560208601610d5c565b610bdf81610e03565b840191505092915050565b6000610bf582610ce0565b610bff8185610cfc565b9350610c0f818560208601610d5c565b80840191505092915050565b6000610c278284610bea565b915081905092915050565b6000602082019050610c476000830184610b93565b92915050565b6000602082019050610c626000830184610ba2565b92915050565b60006020820190508181036000830152610c828184610bb1565b905092915050565b6000610c94610ca5565b9050610ca08282610d8f565b919050565b6000604051905090565b600067ffffffffffffffff821115610cca57610cc9610dc0565b5b610cd382610e03565b9050602081019050919050565b600081519050919050565b600082825260208201905092915050565b600081905092915050565b6000610d1282610d23565b9050919050565b6000819050919050565b600073ffffffffffffffffffffffffffffffffffffffff82169050919050565b6000819050919050565b82818337600083830152505050565b60005b83811015610d7a578082015181840152602081019050610d5f565b83811115610d89576000848401525b50505050565b610d9882610e03565b810181811067ffffffffffffffff82111715610db757610db6610dc0565b5b80604052505050565b7f4e487b7100000000000000000000000000000000000000000000000000000000600052604160045260246000fd5b600080fd5b600080fd5b600080fd5b600080fd5b6000601f19601f8301169050919050565b610e1d81610d43565b8114610e2857600080fd5b5056fea26469706673582212203c953b6cdf2986025991a468f365a46867f7d2931abb2edc6e3a0b0e8761299e64736f6c63430008070033",
    "linkReferences": {},
    "deployedLinkReferences": {}
}